:1000000023C03BC03AC039C044C037C036C035C039
:1000100034C033C032C031C030C02FC02EC02DC05C
:100020002CC02BC02AC02800181412FF1000008218
:10003000C1A1918E00003C428181423C00000E1122
:100040001111FE000000000011241FBECFEDCDBF36
:1000500010E0A0E6B0E0EAE0F1E002C005900D9209
:10006000A236B107D9F710E0A2E6B0E001C01D92B8
:10007000A336B107E1F73AD046C0C2CF07C0EFECD4
:10008000F7E03197F1F700C0000001970097B9F74A
:1000900008951F920F920FB60F9211242F933F9342
:1000A0008F939F93EF93FF932091620030E08091B4
:1000B0006000909161002817390714F010926200D7
:1000C00080916200E82FF0E0E85DFF4FE491E8BB2B
:1000D0008F5F80936200FF91EF919F918F913F918D
:1000E0002F910F900FBE0F901F9018958FEF87BB29
:1000F00089E08EBD80EA9FE09BBD8ABD89B78064A0
:0A01000089BF7894FFCFF894FFCF79
:02010A002000D3
:00000001FF
