:100000002CC044C043C042C04DC040C03FC03EC0F1
:100010003DC03CC03BC03AC039C038C037C036C014
:1000200035C034C033C02800FF88887000708888CD
:100030007000384080402040804038000808FF08A9
:100040000800F40070A8A83000C8E8B898000000C4
:100050000000000000000000000011241FBECFEDD2
:10006000CDBF10E0A0E6B0E0ECE1F1E002C0059009
:100070000D92A236B107D9F710E0A2E6B0E001C0B8
:100080001D92A336B107E1F73AD046C0B9CF07C0F9
:10009000EFECF7E03197F1F700C00000019700970F
:1000A000B9F708951F920F920FB60F9211242F9354
:1000B0003F938F939F93EF93FF932091620030E0E3
:1000C00080916000909161002817390714F0109218
:1000D000620080916200E82FF0E0E85DFF4FE4915C
:1000E000E8BB8F5F80936200FF91EF919F918F91AA
:1000F0003F912F910F900FBE0F901F9018958FEF8B
:1001000087BB89E08EBD80EA9FE09BBD8ABD89B731
:0C011000806489BF7894FFCFF894FFCF83
:02011C003200AF
:00000001FF
